:020000040000FA
:020000000528D1
:040002000034003492
:0800080047288316C730810070
:1000100000308600003087000030880083120030F6
:10002000860000308700003088008101E0308B00BE
:100030000130A0000230A1000330A2000430A30070
:100040000530A4000630A5000730A6000830A70040
:100050000930A8000A30A9000B30B0000C30B10004
:100060000D30B2000E30B3000F30B4001030B500C8
:100070001130B6001230B7001330B8001430B90098
:10008000FF30C000FF30C100FF30C20046288B1394
:100090000B11A00B51280618EA28401C5028061402
:1000A000EB28A10B59288618EE28C01C5828861466
:1000B000EF28A20B61280619F228401D60280615BA
:1000C000F328A30B69288619F628C01D6828861511
:1000D000F728A40B7128061AFA28401E7028061665
:1000E000FB28A50B7928861AFE28C01E78288616BC
:1000F000FF28A60B8128061B0229401F802806170F
:100100000329A70B8928861B0629C01F8828861764
:100110000729A80B912807180A29411C90280714C1
:100120000B29A90B992887180E29C11C9828871418
:100130000F29B00BA12807191229411DA028071566
:100140001329B10BA92887191629C11DA8288715BD
:100150001729B20BB128071A1A29411EB028071611
:100160001B29B30BB928871A1E29C11EB828871668
:100170001F29B40BC128071B2229411FC0280717BC
:100180002329B50BC928871B2629C11FC828871713
:100190002729B60BD12808182A29421CD028081470
:1001A0002B29B70BD92888182E29C21CD8288814C7
:1001B0002F29B80BE12808193229421DE02808151B
:1001C0003329B90BE92888193629C21DE828881572
:1001D00037293A2906100130A00051288610023034
:1001E000A100592806110330A200612886110430AD
:1001F000A300692806120530A40071288612063073
:10020000A500792806130730A60079288613083040
:10021000A700892807100930A800912887100A3004
:10022000A900992807110B30B000A12886111230BF
:10023000B100A92807120C30B200B12887120D3086
:10024000B300B92807130F30B400C128871310304A
:10025000B500C92808101130B600D1288810123016
:10026000B700D92808111330B800E12888111430DC
:08027000B900E9288B17090011
:02400E00393F38
:00000001FF
